:100000000C9461010C9489010C9489010C94890170
:100010000C9489010C9489010C9489010C94890138
:100020000C9489010C9489010C9489010C94890128
:100030000C9489010C9489010C9489010C94890118
:100040000C94591F0C9489010C94271F0C94011FC8
:100050000C9489010C9489010C9489010C948901F8
:100060000C94A31F0C94890100407A10F35A00A04D
:10007000724E18090010A5D4E80000E87648170071
:1000800000E40B54020000CA9A3B000000E1F505B1
:10009000000080969800000040420F000000A086FB
:1000A00001000000102700000000E803000000002D
:1000B0006400000000000A000000000001000000D1
:1000C00000002C76D888DC674F0823DFC1DFAE59EB
:1000D000E1B1B796E5E3E453C63AE651997696E87E
:1000E000E6C28426EB898C9B62ED407C6FFCEFBC02
:1000F0009C9F40F2BAA56FA5F490055A2AF75C932D
:100100006B6CF9676DC11BFCE0E40D47FEF520E662
:10011000B500D0ED902E0300943577050080841E45
:10012000080000204E0A000000C80C333333330FA0
:10013000986E12831141EF8D2114893BE65516CF3D
:10014000FEE6DB18D1844B381BF77C1D901DA4BB49
:10015000E424203284725E228100C9F124ECA1E5FE
:100160003D27626C6E6B696E660076657200312E9B
:10017000312E3000682D626561740034350062757F
:1001800066662D696E003235360064657600417210
:100190006475696E6F20556E6F0063707500415411
:1001A0006D6567613332385000636F6E00573531CB
:1001B00030300066772D7479706500544D504C34A2
:1001C00032627539773375006275696C6400417508
:1001D0006720203620323032322030323A35363AFB
:1001E000343400000000000000250028002B00002F
:1001F000000000240027002A000000000023002641
:10020000002900040404040404040402020202029B
:1002100002030303030303010204081020408001CA
:100220000204081020010204081020000000080049
:100230000201000003040700000000000000008C21
:10024000018C018C018C018C018C018C018C018C46
:10025000018C018C018C018C018C018C018C018C36
:10026000018C018C018C018C018C018C018C018C26
:10027000018C018C018C018C018C018C018C01CAD8
:10028000168B01AE168B018B018B018B018B018BC1
:10029000018B018B018B018B018B018B018B018BFE
:1002A000018B018B018B018B018B018B018B018BEE
:1002B000018B018B018B018B018B018B018B010069
:1002C0004E2111241FBECFEFD8E0DEBFCDBF12E01C
:1002D000A0E0B1E0E6E6F5E602C005900D92A83593
:1002E000B107D9F726E0A8E5B2E001C01D92A93315
:1002F000B207E1F711E0C1E6D1E004C02197FE01A9
:100300000E94B231C036D107C9F70E9439220C943D
:10031000B1320C940000089508958CBD9DBD0895E0
:1003200020E3FC0120833296862F82958F706F70B8
:100330006A3030F4605D6293682F8111F5CF0895C3
:10034000695CF9CFFC01818D928D0895089508951F
:100350000895AF92BF92CF92DF92EF92FF920F93E8
:100360001F93CF93DF936C017B018B01040F151F4B
:10037000EB015E01AE18BF08C017D10759F06991B3
:10038000D601ED91FC910190F081E02DC601099517
:10039000892B79F7C501DF91CF911F910F91FF90C4
:1003A000EF90DF90CF90BF90AF900895FC01538DF8
:1003B000448D252F30E0842F90E0821B930B54173F
:1003C00010F0CF96089501970895FC01918D828DCC
:1003D000981761F0A28DAE0FBF2FB11D5D968C9165
:1003E000928D9F5F9F73928F90E008958FEF9FEFA4
:1003F0000895FC01918D828D981731F0828DE80F60
:10040000F11D858D90E008958FEF9FEF0895FC0119
:10041000918D228D892F90E0805C9F4F821B9109E6
:100420008F739927089587EA93E00E94070221E0DD
:10043000892B09F420E0822F089580E090E0892B39
:1004400029F00E94130281110C9400000895FC0110
:10045000A48DA80FB92FB11DA35ABF4F2C91848D25
:1004600090E001968F739927848FA689B7892C9382
:10047000A089B1898C91837080648C93938D848DD5
:10048000981306C00288F389E02D80818F7D8083D8
:100490000895EF92FF920F931F93CF93DF93EC0198
:1004A00081E0888F9B8D8C8D98131AC0E889F9891B
:1004B000808185FF15C09FB7F894EE89FF8960831E
:1004C000E889F98980818370806480839FBF81E09F
:1004D00090E0DF91CF911F910F91FF90EF900895E1
:1004E000F62E0B8D10E00F5F1F4F0F731127E02EBC
:1004F0008C8D8E110CC00FB607FCFACFE889F989F4
:10050000808185FFF5CFCE010E942702F1CFEB8DD0
:10051000EC0FFD2FF11DE35AFF4FF0829FB7F894C7
:100520000B8FEA89FB8980818062CFCFCF93DF93E5
:10053000EC01888D8823B9F0AA89BB89E889F989FB
:100540008C9185FD03C0808186FD0DC00FB607FC30
:10055000F7CF8C9185FFF2CF808185FFEDCFCE0163
:100560000E942702E9CFDF91CF910895833081F077
:1005700028F4813099F08230A9F008958730A9F0ED
:100580008830C9F08430B1F4809180008F7D03C041
:10059000809180008F7780938000089584B58F7755
:1005A00084BD089584B58F7DFBCF8091B0008F7797
:1005B0008093B00008958091B0008F7DF9CF1F9394
:1005C000CF93DF93282F30E0F901E55DFD4F849153
:1005D000F901E95EFD4FD491F901ED5FFD4FC49142
:1005E000CC23A9F0162F81110E94B602EC2FF0E067
:1005F000EE0FFF1FEB51FE4FA591B4918FB7F8940A
:10060000EC91111108C0D095DE23DC938FBFDF91F0
:10061000CF911F910895DE2BF8CFCF93DF9390E019
:10062000FC01E95EFD4F24918D5F9D4FFC0184919B
:100630008823C9F090E0880F991FFC01E151FE4F1B
:10064000A591B491FC01EB51FE4FC591D49161117C
:100650000DC09FB7F8948C91209582238C9388814C
:10066000282328839FBFDF91CF910895623051F4F2
:100670009FB7F8943C91822F809583238C93E881D7
:100680002E2BEFCF8FB7F894EC912E2B2C938FBF9E
:10069000EACF1F93CF93DF93182FEB0161E00E9405
:1006A0000D03209739F460E0812FDF91CF911F91E6
:1006B0000C94DF02CF3FD10511F461E0F5CFE12FBB
:1006C000F0E0E55DFD4FE491E33031F140F4E130DD
:1006D000B1F0E230E1F0C038D1057CF7E4CFE7308B
:1006E00029F1E83059F1E430B1F78091800080625F
:1006F00080938000D0938B00C0938A0004C084B59F
:10070000806884BDC7BDDF91CF911F91089584B5E6
:10071000806284BDC8BDF7CF8091800080688093DF
:100720008000D0938900C0938800EDCF8091B00005
:1007300080688093B000C093B300E5CF8091B00093
:1007400080628093B000C093B400DDCF8E3008F09B
:100750008E508770806480937C0080917A008064E2
:1007600080937A0080917A0086FDFCCF809178009A
:100770009091790008953FB7F89480910F0390917C
:100780001003A0911103B091120326B5A89B05C0D8
:100790002F3F19F00196A11DB11D3FBFBA2FA92F00
:1007A000982F8827BC01CD01620F711D811D911DFD
:1007B00042E0660F771F881F991F4A95D1F7089569
:1007C0008F929F92AF92BF92CF92DF92EF92FF9261
:1007D0006B017C010E94BB034B015C01C114D1047D
:1007E000E104F104B9F00E94BB03681979098A0990
:1007F0009B09683E73408105910580F321E0C21A90
:10080000D108E108F10888EE880E83E0981EA11C4B
:10081000B11CE4CFFF90EF90DF90CF90BF90AF90EE
:100820009F908F9008952FB7F89460910B0370916B
:100830000C0380910D0390910E032FBF08954F92EA
:100840005F926F927F92AF92BF92CF92DF92EF92C0
:10085000FF920F931F93CF93DF93EC016B017B010A
:10086000E40EF51E8B015801AC18BD080E151F05CE
:1008700011F10E941304688779878A879B87E88132
:10088000F9810284F385E02DCE01099597FF23C0FD
:100890000E941304488459846A847B84641975090E
:1008A000860997094C805D806E807F806415750590
:1008B0008605970520F3C501DF91CF911F910F9118
:1008C000FF90EF90DF90CF90BF90AF907F906F90B0
:1008D0005F904F900895F80181938F01C4CF2091CC
:1008E0009902260F3327331F21323105ECF4209172
:1008F000E202FC0190E080E0243069F082E008959B
:10090000A09199022191AC0147585D4FA40FB52FDA
:10091000B11D2C930196861798F380919902680F68
:100920006093990280E0089581E008951092E202B8
:1009300081E08093E1021092BC0261E082E10E94BA
:10094000DF0261E083E10E94DF02E9EBF0E08081F9
:100950008E7F808380818D7F808388E48093B80040
:1009600085E48093BC000895CF93DF9391E090934A
:1009700078028823B9F0C091B800D091BA00809174
:10098000BC008A7B8093BC0060E082E10E94DF02B1
:1009900060E083E10E94DF020E949604D093BA00D7
:1009A000C093B800DF91CF910895E09188038091C2
:1009B0008703E81730F4F0E0E85AFD4F808190E0BB
:1009C00008958FEF9FEF089590918803809187039A
:1009D0002FEF3FEF981748F4E92FF0E0E85AFD4F6A
:1009E000208130E09F5F90938803C9010895809132
:1009F000870390918803891B990B0895CF92DF920A
:100A0000EF92FF920F931F93CF93DF937C01CB0163
:100A10008A012091E802222389F0EB016B01C40EC8
:100A2000D51ECC15DD0569F06991D701ED91FC91DA
:100A30000190F081E02DC7010995F3CF642F0E944A
:100A40006F04C801DF91CF911F910F91FF90EF903C
:100A5000DF90CF900895CF93DF931F92CDB7DEB78D
:100A600069832091E8022223F9F020918503203246
:100A700058F021E030E0FC013383228390E080E0F5
:100A80000F90DF91CF91089580918603E82FF0E0D9
:100A9000E751FD4F998190838F5F80938603809308
:100AA000850381E090E0ECCF61E0CE0101960E94E9
:100AB0006F04F7CFCF92DF92EF92FF920F931F93C5
:100AC000CF93DF93FC01C48121E02093E802C0931F
:100AD000090310928603109285038385682B84E4B2
:100AE00094E00E942B05D0918503D13208F092C08A
:100AF0000E94BB036B017C018091E202811165C001
:100B000082E08093E20281E08093E1028FEF8093A4
:100B1000E0021092DF02D093DE02A9EEB2E0EEEB2B
:100B2000F2E080E0D81385C01092BD028091BD0232
:100B3000CC0FC82BC093BD028091BC02813009F05C
:100B40007CC01092BC020E94BB036B017C018091AF
:100B5000BD028093BB008091E4029091E502A091D8
:100B6000E602B091E702892B8A2B8B2B99F00E9429
:100B7000BB030091E4021091E5022091E60230915E
:100B8000E7026C197D098E099F09061717072807C8
:100B90003907E0F18091BC0083FDD9CF85EC8093CB
:100BA000BC000E94BB036B017C018091E202823099
:100BB00009F445C08091E0028F3F61F18091E0022D
:100BC000803241F18091E00225C08091E402909151
:100BD000E502A091E602B091E702892B8A2B8B2BCC
:100BE00009F48ACF0E94BB030091E4021091E50250
:100BF0002091E6023091E7026C197D098E099F0968
:100C0000061717072807390708F076CF8091E30207
:100C10000E94B40410928603109285031092E80299
:100C2000DF91CF911F910F91FF90EF90DF90CF90C8
:100C300008959D9191938F5F75CF85EEB0CF809190
:100C4000E4029091E502A091E602B091E702892BBF
:100C50008A2B8B2B09F4A9CF0E94BB030091E402DD
:100C60001091E5022091E6023091E7026C197D09AE
:100C70008E099F09061717072807390708F095CF2F
:100C8000C5CFFC0120812EBD9B012150310941F0CF
:100C900051810DB407FEFDCF4EB55EBD4193F5CF3A
:100CA00061507109860F971F0DB407FEFDCF2EB559
:100CB000FC0120830895E0911403F09115038081D5
:100CC00090911303892B80830895E0911403F09190
:100CD0001503908180911303809589238083089563
:100CE0008EBD00000DB407FEFDCF8EB50895AF9206
:100CF000BF92CF92DF92EF92FF920F931F93CF9309
:100D0000DF93CDB7DEB728970FB6F894DEBF0FBEDE
:100D1000CDBF8C017B016A018091A6038333E1F48E
:100D20005801A40EB51EA016B10609F46FC00E94AA
:100D3000650680EF0E947006812F0E947006802F4A
:100D40000E9470060F5F1F4FF70181917F010E9483
:100D500070060E945B06E7CF5B01A40EB51E8433CC
:100D6000C1F40E94650619830A838D2D80688B83E8
:100D7000CC8264E070E0CE0101960E944106AE1480
:100D8000BF0409F441C0F70181917F010E94700600
:100D9000F6CF0E9465060F3F110509F028F419826D
:100DA0000A8384E08B830CC017FD17C019820A8365
:100DB00033E0169507953A95E1F7007E0C600B83BA
:100DC00086E0C816D104A0F5F701DE011496EA15F5
:100DD000FB0599F081918D93FACFC80126E0969595
:100DE00087952A95E1F7807E19830A830115104CB7
:100DF00010F48461D7CF8C61D5CFB6016D5F7F4F82
:100E0000CE0101960E9441060E945B06C60128960B
:100E10000FB6F894DEBF0FBECDBFDF91CF911F910B
:100E20000F91FF90EF90DF90CF90BF90AF9008951B
:100E300063E070E0CE0101960E944106F7018191C6
:100E40007F010E947006AE14BF04C1F7DDCFCF93BF
:100E5000DF931F92CDB7DEB7898341E050E0BE013A
:100E60006F5F7F4F90E080E00E9477060F90DF91E8
:100E7000CF91089590E02091A603233339F40C9686
:100E8000982F990F990F990F80E008954896F8CF01
:100E9000DA01E0911703F0E0FE2FEE27E60FF71FCF
:100EA00090E0982F8827A901BD018E0F9F1F0C94F9
:100EB0007706CF93DF9300D0CDB7DEB779836A830F
:100EC00022E030E0AE014F5F5F4F60E170E00E94D2
:100ED00048070F900F90DF91CF910895CF93DF9344
:100EE00000D0CDB7DEB779836A8322E030E0AE016F
:100EF0004F5F5F4F64E070E00E9448070F900F90D3
:100F0000DF91CF910895CF93DF931F92CDB7DEB7D6
:100F10002091170330E0322F2227260F371F90E051
:100F2000982F8827498341E050E0BE016F5F7F4FD3
:100F3000820F931F0E9477060F90DF91CF91089543
:100F4000CF93DF931F92CDB7DEB76983DC01ED91BC
:100F5000FC910280F381E02D41E050E0BE016F5F23
:100F60007F4F09950F90DF91CF910895FC019485F3
:100F7000FB018485981303C081E0943008F080E081
:100F80000895CF93DF931F92CDB7DEB76983DC015D
:100F9000ED91FC910280F381E02D41E050E0BE0133
:100FA0006F5F7F4F09950F90DF91CF91089508955E
:100FB000FF920F931F93CF93DF93EB01FC01178AEE
:100FC000168A2A81211109C02B81211106C02C818A
:100FD000211103C02D81222301F141155105E9F0B2
:100FE0008A01FC01F08C80E591E00E948D01AE0148
:100FF0004E5F5F4F24E030E06CE070E08F2D0E9488
:101000004807B8018F2D0E94590781E090E0DF91D9
:10101000CF911F910F91FF90089580E0F7CFFC01D1
:10102000848595850895FC018489958908952EE924
:1010300031E0FC0131832083FB01408951896289C1
:101040007389FC0142835383648375830895DC01B3
:10105000ED91FC91048CF58DE02D099490E080E0F9
:1010600008958EE00E94A603BC01990F880B990B8E
:101070000E946D2F20E030E040EA50E40E94CC2F27
:1010800020E030EC4FE754E40E9424312AE037EDB1
:1010900043E25CE30E9424310895FC019485992386
:1010A00069F080819181DC01ED91FC910688F789DE
:1010B000E02D099591E0811101C090E0892F0895FC
:1010C000DC011C961C921C978D919C91DC01ED918A
:1010D000FC910488F589E02D0994FC0176876587E9
:1010E0000895DC01ED91FC91068CF78DE02D0995BA
:1010F00091E089270895862F089581E08627089535
:1011000021E0FC018485843008F020E0822F0895DE
:101110008F929F92AF92BF92EF92FF920F931F9385
:10112000CF93DF93CDB7DEB7A1970FB6F894DEBFAC
:101130000FBECDBF7C01FA01CB0119A2223008F409
:101140002AE08E010F5D1F4F822E912CB12CA12C15
:10115000BF01A50194010E94F330F901CA016A3070
:1011600074F5605DD8016E938D01232B242B252B04
:1011700079F790E080E0109789F0FD010190002060
:10118000E9F73197AF014A1B5B0BD701ED91FC9159
:101190000280F381E02DB801C7010995A1960FB631
:1011A000F894DEBF0FBECDBFDF91CF911F910F919D
:1011B000FF90EF90BF90AF909F908F900895695CE3
:1011C000D1CFFC0101900020E9F73197AF01481B16
:1011D000590BBC0186E894E00C94A901AF92BF9230
:1011E000CF92DF92EF92FF920F931F93CF93DF93F3
:1011F00000D000D0CDB7DEB78C016B017A018091B1
:10120000A6038333E9F45B016801C40ED51EC01642
:10121000D106A9F10E9465068FE00E947006812F19
:101220000E947006802F0E9470060F5F1F4F80E0A3
:101230000E947006F50181935F010E945B06E7CF73
:10124000843369F50E94650619830A838F2D8F7791
:101250008B83EC8264E070E0CE0101960E9441062F
:10126000A70170E060E0C6010E948B32E114F10436
:1012700021F0B701C6010E9441060E945B06C7012A
:101280000F900F900F900F90DF91CF911F910F91C2
:10129000FF90EF90DF90CF90BF90AF9008950E94A5
:1012A00065060F3F110509F030F419820A831B828D
:1012B00063E070E0D1CF17FD0BC019820A8333E0E1
:1012C000169507953A95E1F7007E08600B83F0CFFD
:1012D000C80126E0969587952A95E1F7807E1983C7
:1012E0000A830115104C18F480618B83E1CF88616B
:1012F000FCCFCF93DF931F92CDB7DEB720911703BA
:1013000030E0322F2227260F371F90E0982F8827B2
:1013100041E050E0BE016F5F7F4F820F931F0E943C
:10132000EE0889810F90DF91CF910895CF93C82F58
:10133000462F61E070E00E94830761E070E08C2F2F
:101340000E9479098111F9CFCF910895CF93C82FC9
:1013500080E591E00E948D0168E070E08C2FCF91D4
:101360000C949609CF93C82F80E591E00E948D01DF
:1013700060E170E08C2FCF910C949609CF93DF93AE
:10138000EC01888D843020F40E94B20984E0888FBB
:10139000DF91CF910895CF93C82F80E591E00E940F
:1013A0008D0163E070E08C2FCF910C947909CF937D
:1013B000DF93EC018C858430D0F40E94CB0984311A
:1013C00089F0882379F0883169F021E08C3159F473
:1013D000E881F9810084F185E02DCE01099521E0B5
:1013E000892B09F420E0822FDF91CF91089580E0CE
:1013F000FBCFCF92DF92EF92FF92CF93DF93EC017E
:101400008C85843068F40E94A6090E9413046B0145
:101410007C018C850E94CB09811109C084E08C87F6
:10142000DF91CF91FF90EF90DF90CF90089561E032
:1014300070E080E090E00E94E0030E941304AB01A2
:10144000BC014C195D096E097F098D859E85B0E050
:10145000A0E0481759076A077B07D8F28C850E94DD
:10146000B209DCCFCF93FC01C08D80E591E00E94F2
:101470008D0160E270E08C2F0E94960962E070E0BE
:101480008C2F0E94790984FD16C062E070E08C2FD9
:101490000E94790983FF0AC048E162E070E08C2F66
:1014A0000E94830780E090E0CF91089580E591E06D
:1014B0000E948D01E3CF40E162E070E08C2F0E943A
:1014C000830781E0F0CFCF93DF931F92CDB7DEB7D4
:1014D00041E050E0BE016F5F7F4F90E080E00E94EE
:1014E000EE0889810F90DF91CF910895CF93DF931C
:1014F000C4E1D0E00E94630A882361F061E070E0FB
:1015000080E090E00E94E0032197A1F780E0DF9166
:10151000CF91089581E0FBCF1F93CF93DF931F926C
:10152000CDB7DEB7182F80E591E00E948D01812FA5
:101530000E943A0727E0129FF0011124E657FC4F62
:1015400022813381377041E050E0BE016F5F7F4FF1
:10155000820F931F0E94EE0889810F90DF91CF9137
:101560001F910895FC01808D843040F4218D328DCF
:10157000232B21F00E948C0A90E008958FEF9FEFBB
:101580000895CF93DF93FC012485243028F08FEF5A
:101590009FEFDF91CF910895EC010190F081E02D54
:1015A0000084F185E02D0995892B89F38C850E94B3
:1015B0008C0A90E0EECFDA01E0911703F0E0FE2F05
:1015C000EE27E60FF71F90E0982F8827A901BD01AD
:1015D0008E0F9F1F0C94EE088F929F92AF92BF9236
:1015E000CF92DF92EF92FF921F93CF93DF93CDB70D
:1015F000DEB72C970FB6F894DEBF0FBECDBF20919B
:10160000A60314E0222339F16B017C0180E591E00F
:101610000E948D015E0127E0A20EB11C450110E081
:1016200063E070E0812F0E947909F40181934F01FA
:10163000882349F11F5F143099F710E0F50181917B
:101640005F018D31D9F08831C9F08A518230B0F014
:101650001F5F143099F7812F2C960FB6F894DEBFD8
:101660000FBECDBFDF91CF911F91FF90EF90DF9024
:10167000CF90BF90AF909F908F90089560E170E001
:10168000812F0E949609A12EB12C83EE93E0019741
:10169000F1F742E870E060E0812F0E9483074FEF8E
:1016A00062E070E0812F0E948307B601C114D1046B
:1016B00091F4809100019091010101968115F0EC67
:1016C0009F0708F45CC09093010180930001609132
:1016D000000170910101812F0E946E0786E0ECE00D
:1016E000F1E0DE01119601900D928A95E1F7F70184
:1016F00083818F778C8384818D8385818E83A701FD
:101700004E5F5F4F24E030E06CE070E0812F0E947C
:101710004807B601812F0E94590726E030E0AE014C
:101720004F5F5F4F66E070E0812F0E94480761E0E5
:1017300070E0812F0E94960927E02A9DC0012B9D11
:10174000900D11249C0126573C4F7901F90111821B
:10175000108222E030E0AE01455F5F4F68E270E04A
:10176000812F0E94DB0A8B859C85982789279827E3
:10177000F701938382831682158214826CCF80E0F6
:1017800090ECA1CFCF92DF92EF92FF920F931F9335
:10179000CF93DF9300D000D000D0CDB7DEB78C015F
:1017A0006B017A01FC01808D843010F40E94B20933
:1017B0008EE991E09A838983F60182819381A481E5
:1017C000B5818B839C83AD83BE83B701CE01019627
:1017D0000E94EC0AF801808F8430A0F4F586E4863C
:1017E000128E118E81E026960FB6F894DEBF0FBEE2
:1017F000CDBFDF91CF911F910F91FF90EF90DF90C0
:10180000CF90089580E0EFCFAF92BF92CF92DF925A
:10181000EF92FF920F931F93CF93DF9300D000D0EE
:1018200000D0CDB7DEB7082F6B0180E591E00E94B4
:101830008D019E012F5F3F4F7901590110E063E058
:1018400070E0812F0E947909F50181935F0188235F
:1018500041F11F5F143099F710E0F70181917F018A
:101860008D31D1F08831C1F08A518230A8F01F5FEC
:10187000143099F7812F26960FB6F894DEBF0FBE6D
:10188000CDBFDF91CF911F910F91FF90EF90DF902F
:10189000CF90BF90AF90089560E170E0812F0E94DB
:1018A0009609E12EF12C83EE93E00197F1F7402F9A
:1018B00070E060E0812F0E9483074FEF62E070E0EC
:1018C000812F0E948307B601CD2889F48091000101
:1018D0009091010101968115F0EC9F0798F190938A
:1018E0000101809300016091000170910101812F3D
:1018F0000E946E0761E070E0812F0E94960927E048
:101900002E9DC0012F9D900D11249C0126573C4F08
:101910007901F9011182108222E030E0AE014B5FC3
:101920005F4F68E270E0812F0E94DB0A8D819E810B
:10193000982789279827F701938382831682158237
:10194000148298CF80E090ECCACFCF92DF92EF92D2
:10195000FF921F93CF93DF93EC017B016A018C858B
:10196000843048F40E94CB09882319F08C850E94AA
:10197000A60984E08C87F70182819381A481B581D7
:101980000097A105B10551F490E080E0DF91CF917F
:101990001F91FF90EF90DF90CF9008958F3F9F4F62
:1019A000AF4FBF4F89F38091A603811103C084E03C
:1019B0008C87EACF70E060E081E20E94040C182F6F
:1019C0008C87843008F780E591E00E948D01A701A3
:1019D0004E5F5F4F24E030E06CE070E0812F0E94AA
:1019E0004807B601812F0E94590764E070E0812FFB
:1019F0000E9496090E9413046B017C018C850E9451
:101A0000CB09873109F18C31F9F0882309F4BCCF77
:101A10000E941304AB01BC014C195D096E097F09DA
:101A20008D859E85B0E0A0E084179507A607B707CF
:101A300038F061E070E080E090E00E94E003DECFEB
:101A40008C850E94B209B3CF81E090E09FCF0F93C5
:101A50001F93CF93DF93EC018B01888D843010F4BA
:101A60000E94B2098091A603811107C094E0988F6B
:101A7000DF91CF911F910F910895B80182E00E94EC
:101A8000040C888F843030F41D870C871A8E198ED1
:101A900081E0EECF80E0ECCF7F928F929F92AF9269
:101AA000BF92CF92DF92EF92FF920F931F93CF934B
:101AB000DF9300D0CDB7DEB7782E8B014A015901F4
:101AC00022E030E0AE014F5F5F4F64E270E00E94C1
:101AD000DB0AE980FA80FE24EF24FE24E00EF11EEA
:101AE000970137704091A603072D10E0433309F0AA
:101AF00042C0085F1F4F102F0027110F110F110F49
:101B0000C901800F911F4733C9F1A9014A0D5B1D1F
:101B10004130584098F160E078E06B01C21AD30A76
:101B2000A601B4010E947706A5014C195D09B40114
:101B30006C0D7D1DC8010E947706EA0CFB1CF98222
:101B4000EA8222E030E0AE014F5F5F4F64E270E076
:101B5000872D0E9448070F900F90DF91CF911F9122
:101B60000F91FF90EF90DF90CF90BF90AF909F903C
:101B70008F907F900895005F1F4FBDCFA501B401E6
:101B8000DACFEF92FF921F93CF93DF9300D0CDB7C0
:101B9000DEB7182F22E030E0AE014F5F5F4F60E20A
:101BA00070E00E94DB0AE980FA80FE24EF24FE2424
:101BB00022E030E0AE014F5F5F4F60E270E0812FC6
:101BC0000E94DB0A89819A81982789279827E8163D
:101BD000F90689F487E0189FF0011124E657FC4FBD
:101BE000F582E482C7010F900F90DF91CF911F9192
:101BF000FF90EF9008957C01DBCF1F93CF93DF938D
:101C0000182F80E591E00E948D01812F0E94C10D67
:101C1000EC0163E070E0812F0E947909873121F0A7
:101C20008C3111F0D0E0C0E0CE01DF91CF911F9157
:101C30000895CF93DF93EC018C85843060F40E948B
:101C4000CB09873111F08C3131F48C850E94FD0D68
:101C50008115984088F3DF91CF910895FC01848528
:101C6000843010F40C94FD0D90E080E008959F9274
:101C7000AF92BF92CF92DF92EF92FF920F931F939A
:101C8000CF93DF938C015B01942EE52EFC01C68877
:101C9000D788F08C80E591E00E948D018F2D0E9405
:101CA000C10DC92DDE2D8C179D0708F4EC019E0196
:101CB000A501B6018F2D0E944C0DF80186899789E8
:101CC0008C0F9D1F978B868BCE01DF91CF911F913B
:101CD0000F91FF90EF90DF90CF90BF90AF909F90CB
:101CE00008958F929F92AF92BF92CF92DF92EF9220
:101CF000FF920F931F93CF936C015B018A01FC014C
:101D0000C485C430F0F57A014130584018F0E12C18
:101D100088E0F82E80E591E00E948D018C2F0E94D2
:101D2000C10D4C0163E070E08C2F0E94790987316E
:101D300011F08C3149F58E149F0460F380E591E039
:101D40000E948D019701A50170E060E08C2F0E9438
:101D50004C0D60E270E08C2F0E94960962E070E00A
:101D60008C2F0E94790984FD17C063E070E08C2FEE
:101D70000E94790981110BC081E090E0F601938304
:101D8000828310E000E010C0F12CE12CD7CF80E579
:101D900091E00E948D01E2CF40E162E070E08C2F83
:101DA0000E948307EF2841F3C801CF911F910F9143
:101DB000FF90EF90DF90CF90BF90AF909F908F906B
:101DC0000895FF920F931F93CF93DF9300D0CDB769
:101DD000DEB7F82E22E030E0AE014F5F5F4F66E2E3
:101DE00070E00E94DB0A09811A8110270127102761
:101DF00022E030E0AE014F5F5F4F66E270E08F2D72
:101E00000E94DB0A89819A819827892798270817D9
:101E1000190749F4C8010F900F90DF91CF911F91DE
:101E20000F91FF9008958C01E3CF1F93CF93DF9321
:101E3000182F87E0189FE0011124C657DC4F8881D6
:101E40009981009761F480E591E00E948D01812FD6
:101E50000E94E10E2E81821B910999838883DF9174
:101E6000CF911F910895FC018485843010F40C9467
:101E7000150F90E080E008954F925F927F928F92CD
:101E80009F92AF92BF92CF92DF92EF92FF920F9309
:101E90001F93CF93DF9300D0CDB7DEB7782E6B01C1
:101EA0004A01A82EB12C27E0829FC0011124FC0119
:101EB000E657FC4F7F010081118180E591E00E948F
:101EC0008D010815190554F4872D0E94E10EF701C4
:101ED00026818C01021B1109118300830115110554
:101EE00029F563E070E0872D0E947909843159F06B
:101EF000882349F001E010E08C3111F410E000E09B
:101F0000119501951109C8010F900F90DF91CF91A4
:101F10001F910F91FF90EF90DF90CF90BF90AF9007
:101F20009F908F907F905F904F90089580169106BC
:101F30000CF4840187E08A9DF0018B9DF00D112443
:101F4000E657FC4FE280F380C114D10451F1270120
:101F5000F7E05F22872D0E943A07840D951D20919E
:101F6000A603273309F453C09801240D351D2130F1
:101F7000384008F44CC020E038E049018418950846
:101F8000A401B6010E94EE082601480C591C680104
:101F9000C818D908872D0E943A07A601B2010E94ED
:101FA000EE08E00EF11E87E08A9DF0018B9DF00D9A
:101FB0001124E657FC4FF382E28220813181201BFD
:101FC000310B318320838681800F912F911D8A3FB1
:101FD000910510F4232BF1F487E08A9DF0018B9D8D
:101FE000F00D1124E657FC4F1682F982EA8222E0B6
:101FF00030E0AE014F5F5F4F68E270E0872D0E94D6
:10200000480760E470E0872D0E9496097CCFA80104
:10201000B601C5CF868377CFCF93DF93FC01218DA7
:10202000328D2115310529F48FEF9FEFDF91CF918C
:102030000895EC01808D4217530708F0A9010E9412
:102040003C0F1816190684F7298D3A8D281B390B79
:102050003A8F298FEBCF0F931F93CF93DF931F926C
:10206000CDB7DEB7FC01218D328D232B41F48FEFEC
:102070009FEF0F90DF91CF911F910F9108958C01E9
:1020800041E050E0BE016F5F7F4FFC01808D0E94F8
:102090003C0F181619065CF7F801818D928D019797
:1020A000928F818F898190E0E4CFCF93DF931F924D
:1020B000CDB7DEB741E050E0BE016F5F7F4FFC015E
:1020C00084850E943C0F1816190634F4898190E02B
:1020D0000F90DF91CF9108958FEF9FEFF9CFFC0123
:1020E0008485843010F40C943C0F90E080E00895D7
:1020F0000F931F93CF93DF9300D0CDB7DEB7FC01D2
:1021000024852430E0F48C0180E591E00E948D016B
:1021100022E030E0AE014F5F5F4F60E170E0F80118
:1021200084850E94DB0A89819A81982789279827CC
:102130000F900F90DF91CF911F910F91089590E034
:1021400080E0F6CF0F931F93CF93DF9300D0CDB7EE
:10215000DEB7FC0124852430E0F48C0180E591E0B9
:102160000E948D0122E030E0AE014F5F5F4F64E0DE
:1021700070E0F80184850E94DB0A89819A819827A2
:10218000892798270F900F90DF91CF911F910F9182
:10219000089590E080E0F6CFDC018EE991E08D9328
:1021A0009D9384E0FB0101900D928A95E1F70895DB
:1021B000EF92FF920F931F93CF93DF9300D000D045
:1021C000CDB7DEB78C017B01FB0184858430A8F09C
:1021D0008EE991E0F8019183808312821382148248
:1021E0001582C8010F900F900F900F90DF91CF9143
:1021F0001F910F91FF90EF90089580E591E00E946C
:102200008D0124E030E0AE014F5F5F4F6CE070E085
:10221000F70184850E94DB0ABE016F5F7F4FC80112
:102220000E94CC10DECF0F931F93CF93DF93CDB7D7
:10223000DEB728970FB6F894DEBF0FBECDBF8C0176
:10224000D80159964D915C915A974115510551F01D
:10225000ED91FC91048CF58DE02D70E060E0C801FB
:102260000995EECFF801808D0E94150F892BB1F1F1
:1022700048E050E0BE016F5F7F4FD80158968C91C7
:102280000E943C0F18161906F4F4D801509684E009
:10229000FE01319601900D928A95E1F78D8190E0D3
:1022A000982F88272E81820F911DF801958B848BA2
:1022B0008F81282F30E0322F22278885820F932F9D
:1022C000911D928F818F28960FB6F894DEBF0FBEB6
:1022D000CDBFDF91CF911F910F91089590E080E0E5
:1022E000F2CF4F925F926F927F928F929F92AF92B6
:1022F000BF92CF92DF92EF92FF920F931F93CF93F3
:10230000DF93CDB7DEB763970FB6F894DEBF0FBE8D
:10231000CDBF7C016B013A01FB0120E090E080E041
:102320006AE03191332309F461C040ED430F4A3034
:1023300008F04DC0689FA001699F500D1124CA018B
:10234000C097830F911D37FD9A958F3F910549F3F3
:1023500040F3F701428153816481758180917C044F
:1023600090917D04A0917E04B0917F044817590795
:102370006A077B0709F40DC28701085F1F4F0E949F
:1023800013046F7077277C5FC8010E94270D81308E
:1023900009F004C28EE991E09A838983F701828172
:1023A0009381A481B5818B839C83AD83BE8345E3F8
:1023B00050E0BE016F5F7F4FC8010E94D807892B94
:1023C000A9F5D12CC12CC8010E94BE0917C03E320C
:1023D00009F0BFCF233009F4BCCFD301A20FB11D48
:1023E00012968C932F5F90E080E09BCF233009F012
:1023F000B0CFF3018583CC24C394D12CC60163965E
:102400000FB6F894DEBF0FBECDBFDF91CF911F9105
:102410000F91FF90EF90DF90CF90BF90AF909F9083
:102420008F907F906F905F904F9008950E9413045B
:10243000F7017783668342E050E0B7016A5F7F4F20
:10244000C8010E94370E81E090E09A83898342E0C0
:1024500050E0BE016F5F7F4FC8010E94370E80E0E1
:1024600091E09A83898342E050E0BE016F5F7F4F25
:10247000C8010E94370E1A82198242E050E0BE0164
:102480006F5F7F4FC8010E94370E42E050E0BE01EF
:102490006F5F7F4FC8010E94370E42E050E0BE01DF
:1024A0006F5F7F4FC8010E94370E5601F601808191
:1024B000882301F16501F60181912F01882311F034
:1024C0008E32B1F446018A189B081814190474F46A
:1024D0008D8641E050E0BE01635F7F4FC8010E94DE
:1024E000370EA401B501C8010E94370E5201DECF9C
:1024F0006201E1CF1D8641E050E0BE01635F7F4F86
:10250000C8010E94370EC12CDD24D394DA82C9821F
:1025100042E050E0BE016F5F7F4FC8010E94370E5E
:10252000DA82C98242E050E0BE016F5F7F4FC8018E
:102530000E94370EC8010E94320A892B09F441CF4C
:10254000F3E0AF2EB12C230122E0420E511CD4C087
:10255000F7014281538164817581808D918DA28DB7
:10256000B38D481759076A077B0709F008C1848DA6
:10257000958DC59709F003C181A192A15DEFC52E8C
:10258000DD24DA940C970CF4ADC04CE050E0BE01B1
:102590006F5F7F4FC8010E940C108B819C81982730
:1025A000892798279A8B898BF70146815781298142
:1025B0003A814217530709F0E7C097FFE5C08F70D3
:1025C00092703BEFC32EDD24DA94892B09F08AC088
:1025D0006F8078847624672476242AEFC22EDD2447
:1025E000DA946114710409F47DC0D12CC12C8D8161
:1025F0009E81982789279827C816D906F8F441E0C4
:1026000050E0BE01635F7F4FC8010E940C104D85F2
:10261000442331F050E070E060E0C8010E940C10EB
:102620008D858111ECCF44E050E070E060E0C8019E
:102630000E940C10FFEFCF1ADF0AD9CF912C812C0A
:1026400041E050E0BE016D5E7F4FC8010E940C105A
:102650004B89842F807C09F06CC0442331F050E01A
:1026600070E060E0C8010E940C108B898111E8CFF6
:1026700042E050E0BE01615F7F4FC8010E940C1034
:1026800042E050E0BE01635F7F4FC8010E940C1022
:1026900044E050E070E060E0C8010E940C1042E0AD
:1026A00050E0BE016F5E7F4FC8010E940C108F8505
:1026B000988949895A898115914009F043C0CD8490
:1026C000DE84DC24CD24DC2481E0C816D104D1F5DD
:1026D0004115544009F04AC044E050E0B201C8013D
:1026E0000E940C1021E0A21AB10809F46CCEFFEF91
:1026F000CF16DF0609F067CE0E9413043B014C01A0
:10270000C8010E941311181619060CF421CF0E945B
:102710001304661977098809990969387341810595
:10272000910548F562E370E080E090E00E94E003EC
:10273000E7CF41E050E070E060E0C8010E940C107B
:102740001B8A93CF54274527542770E060E0C801C7
:102750000E940C10FFEF8F1A9F0A6814790409F089
:102760006FCF96EFC92EDD24DA94BCCFE7EFCE2EE3
:10277000DD24DA94B7CFCC24CA94DC2CB3CF6EEF2F
:10278000C62EDD24DA94AECF4CEFC42EDD24DA94CD
:10279000A9CF8EEFC82EDD24DA9430CED12CC12CF7
:1027A0002DCECF92DF92EF92FF920F931F93CF9394
:1027B000DF93CDB7DEB7AF970FB6F894DEBF0FBE8D
:1027C000CDBF7C016A010EE911E01A8309831C86E2
:1027D0001B8688EE93E0A0E0B0E08D879E87AF87F0
:1027E000B88B86E191E09A878987188F0F8B198EB5
:1027F0001A8E1B8E1C8E84E089A31BA70AA71CA619
:102800001DA61EA61FA68091700490917104A09130
:102810007204B09173048EA39FA3A8A7B9A78B835A
:102820009C83AD83BE8318861F82AE01465D5F4FD9
:10283000CE0101960E94711181309105B1F4D7014A
:10284000ED91FC910488F589E02D1DA30CA38CA5C6
:102850009DA5AEA5BFA58EA39FA3A8A7B9A7A601B6
:10286000BE016C5D7F4FC7010995AF960FB6F89416
:10287000DEBF0FBECDBFDF91CF911F910F91FF90B3
:10288000EF90DF90CF900895CF92DF92EF92FF927A
:102890000F931F93CF93DF93CDB7DEB7AF970FB6EC
:1028A000F894DEBF0FBECDBF8C016B017A018EE9BB
:1028B00091E09A8389831B821C821D821E821C8662
:1028C0001B8648EE53E060E070E04D875E876F87BF
:1028D000788B26E131E03A872987988F8F8B198E84
:1028E0001A8E1B8E1C8E24E029A39BA78AA71CA6E8
:1028F0001DA61EA61FA6D8011C968C91843060F4DC
:102900000E94CB09882321F0F80184850E94A60942
:1029100084E0D8011C968C9380917004909171048E
:10292000A0917204B09173048EA39FA3A8A7B9A726
:102930008B839C83AD83BE8318861F82AE01465D68
:102940005F4FB601CE0101960E9471110097C1F050
:10295000D801ED91FC910684F785E02D8EE991E098
:102960009DA38CA38CA59DA5AEA5BFA58EA39FA35B
:10297000A8A7B9A7A701BE016C5D7F4FC801099543
:10298000AF960FB6F894DEBF0FBECDBFDF91CF91EB
:102990001F910F91FF90EF90DF90CF9008957F925D
:1029A0008F929F92AF92BF92CF92DF92EF92FF925F
:1029B0000F931F93CF93DF93CDB7DEB7A6970FB6D4
:1029C000F894DEBF0FBECDBF8C01762E942E852EDF
:1029D00020E2A22ECE0101967C01DC01EA2D1D929F
:1029E000EA95E9F76801F3E4CF0ED11C8EE991E096
:1029F0009AA389A38FEF8BA38CA38DA38EA343E40B
:102A000050E0BE016F5D7F4FC6010E94D80701965E
:102A100009F4BFC081E089838A8386E0B82EBB8237
:102A20001C82D80114966D917D918D919C91179780
:102A30000E94AB316D837E838F83988789869A86C7
:102A400080E890E09C878B874CE150E0B701C6019D
:102A50000E94370EFE0137968AE1DF011D928A95AA
:102A6000E9F74801B8E08B0E911CF401D701019001
:102A70000D92BA94E1F740E150E0B701C6010E941F
:102A8000370EF7011192AA94E9F796E0A92EB12C1E
:102A900040E250E0B701C6010E94370EF1E0AF1AE4
:102AA000B108B1F783E6898392E89A8393E59B8323
:102AB0008C8385E38D8381E08E837F829DE398877D
:102AC00097E099878A8786E0F401DE011B960190E2
:102AD0000D928A95E1F78CE0898B8A8B60EA71E030
:102AE000CE0143960E949B32D8011B966C91CE0179
:102AF00049960E949001F8016485CE014B960E9490
:102B00009001D8011D966C91CE014D960E949001C6
:102B10004EE150E0B701C6010E94370EB3E07B12D0
:102B20001EC082E3898384E08A83F80196859B83B3
:102B300097859C8390899D8391899E8396E39F834B
:102B40008887828D8987838D8A87848D8B87858D01
:102B50008C874CE050E0B701C6010E94370E87E336
:102B6000898386E08A8391E09B8393E09C838D83B5
:102B70008FE08E838AE38F838BE388878FEF89874B
:102B800049E050E0B701C6010E94370EC6010E941D
:102B9000320AA6960FB6F894DEBF0FBECDBFDF9106
:102BA000CF911F910F91FF90EF90DF90CF90BF904A
:102BB000AF909F908F907F9008950F931F93CF9326
:102BC000DF93EC01FB0101900020E9F78F01061B68
:102BD000170B8A819B81A801480F591F2C813D81C9
:102BE0002417350768F028813981A801820F931FC7
:102BF0000E9482324A815B81400F511F5B834A836E
:102C0000DF91CF911F910F9108950F931F93CF9351
:102C1000DF93EC0188819981009759F02A813B81EB
:102C20002617370730F081E0DF91CF911F910F9188
:102C300008958B016F5F7F4F0E94B831009759F064
:102C4000998388831B830A832C813D81232B59F729
:102C5000FC011082E8CF80E0E7CF8F929F92AF9285
:102C6000BF92CF92DF92EF92FF920F931F93CF9379
:102C7000DF937C01EB016C0182E0C80ED11C47019F
:102C8000E5E08E0E911C10E000E0F60141916F012D
:102C900050E070E060E02AE0CE010E9488085C010C
:102CA000E881F9810190F081E02D6EE2CE01099575
:102CB0008A0D9B1D080F191FC814D90431F7F7019D
:102CC000458150E070E060E02AE0CE010E94880873
:102CD000800F911FDF91CF911F910F91FF90EF9087
:102CE000DF90CF90BF90AF909F908F9008950F93FB
:102CF0001F93CF938C01C62F0E945A056C2F6460DE
:102D0000C8010E945A056C2F6B7FC8010E945A05AA
:102D100083EC90E00197F1F7CF911F910F91089507
:102D20000F931F93CF93DF938C01D62FC42F607F17
:102D3000642B0E94771680E1D89FB00111246C2B80
:102D4000C801DF91CF911F910F910C947716682FD6
:102D5000606840E086E894E00C949016FB01808166
:102D600091810E94942C892B59F061E085E00E94AA
:102D7000DF0287E00E94A71687EA91E00C94E10841
:102D800060E085E00E94DF0287E00E94A71681EBE9
:102D900091E0F4CFFB01808191810E94942C892BDA
:102DA00059F061E084E00E94DF0287E00E94A716EC
:102DB0008CEB91E00C94E10860E084E00E94DF027B
:102DC00087E00E94A71686EC91E0F4CF41E00E94D4
:102DD000901681E090E0089585ED8093BC0080918D
:102DE000E4029091E502A091E602B091E702079615
:102DF000A11DB11D23E0B695A795979587952A95B6
:102E0000D1F72091BC0024FD03C01092E202089586
:102E10004091E4025091E5026091E6027091E70270
:102E2000452B462B472B69F30097A105B10541F0CF
:102E300025E32A95F1F700000197A109B109E1CF37
:102E40008091E3020C94B4043F924F925F926F9290
:102E50007F928F929F92AF92BF92CF92DF92EF922A
:102E6000FF920F931F93CF93DF93CDB7DEB7EA970F
:102E70000FB6F894DEBF0FBECDBF7C012A013B0127
:102E800069010E9413044B015C0187010D5B1F4F18
:102E9000C8010E941311181619069CF00E94130411
:102EA000681979098A099B09461657066806790642
:102EB00008F466C162E370E080E090E00E94E00305
:102EC000E7CF42E250E0BE016F5F7F4FC8010E9432
:102ED0000C1089818230D1F0312C832DEA960FB607
:102EE000F894DEBF0FBECDBFDF91CF911F910F9140
:102EF000FF90EF90DF90CF90BF90AF909F908F901A
:102F00007F906F905F904F903F900895F801848973
:102F100095898334910501F76D817E818F81988534
:102F20000E94AB314B015C01F60180829182A2824A
:102F3000B38246E050E0B701685F7F4FCE014D9607
:102F40000E947532892B41F6F70180819181A2811F
:102F5000B38188169906AA06BB0608F4BDCF848102
:102F60009581A681B78188159905AA05BB0508F446
:102F7000B3CF89899A89AB89BC8986879787A08BCB
:102F8000B18B4EEC50E070E060E0C8010E940C1084
:102F9000312CC701829698AB8FA7F701B696FAAB92
:102FA000E9AB08969CAB8BAB67019AE1C90ED11CCB
:102FB000BD96FEABEDABC701429698AF8FABFD97C8
:102FC000FAAFE9AF4701FEE18F0E911CF801818D48
:102FD000928D181619060CF080CFC8010E942B1094
:102FE0008333910509F4B2C014F58130910509F4D9
:102FF00064C044F4892B51F3C8010E942B10AC012A
:10300000552775C08330910509F462C00697A1F772
:10301000C8010E942B10B82E44E050E0B401C80152
:103020000E940C10EB2DE450FF0BAF0160C08A33FF
:10303000910509F45FC084F585339105B1F1C69718
:10304000D9F6C8010E942B105C01B601CE01899609
:103050000E94CC108BA59CA5ADA5BEA5892B8A2B63
:103060008B2BB1F0EDA9FEA9408051806280738066
:10307000B601CE0183960E94CC108DA19EA1AFA176
:10308000B8A5A501481659066A067B0609F0B8CF0F
:1030900044E050E0B60118C08B33910509F440C0FC
:1030A0008F3F910509F492CFA7CFC8010E942B1042
:1030B000C8010E942B10382E89CFC8010E942B1006
:1030C00044E050E06FA978ADC8010E940C107ECF9B
:1030D000C8010E942B10B82E44E050E069AD7AADD3
:1030E000C8010E940C108B2D8450990BAC0170E02C
:1030F00060E0EACFC8010E942B1044E050E069A9CB
:103100007AA9C8010E940C10F70166A177A180A5D9
:1031100091A50E94AB3166A377A380A791A756CF54
:10312000C8010E942B1044E050E06BA97CA9C801A3
:103130000E940C10F70162A573A584A595A50E94B5
:10314000AB3162A773A784A795A740CFC8010E949F
:103150002B1044E050E06FA578A9C8010E940C1024
:10316000F70162A173A184A195A10E94AB3162A372
:1031700073A384A395A366A777A780AB91AB26CF53
:1031800033243A94AACE0F931F93CF93DF93CDB7F6
:10319000DEB762970FB6F894DEBF0FBECDBF8C01CD
:1031A000CB014AE0BE016F5F7F4F0E94E22CBE015F
:1031B0006F5F7F4FC8010E94DD1562960FB6F894CD
:1031C000DEBF0FBECDBFDF91CF911F910F9108954C
:1031D0003F924F925F926F927F928F929F92AF92A7
:1031E000BF92CF92DF92EF92FF920F931F93CF93F4
:1031F000DF93CDB7DEB7A1970FB6F894DEBF0FBE51
:10320000CDBF5C010DB71EB719A308A360E070E045
:10321000CB010E94E003D50157968D919C91589760
:10322000912C029709F495C056968C9156978F5F12
:1032300056968C93569754962D913C91232B19F0CA
:10324000992493947FC08330D8F7F50180819181D0
:103250000E944D08882309F43CC38E010F5F1F4F65
:103260003801D501ED91FC9180819181DC01ED91D6
:10327000FC910084F185E02D0995181619060CF0D3
:1032800028C3D501ED91FC9145E050E0BE01695E97
:103290007F4F808191810E941F04009711F3059751
:1032A00009F04AC0888D998D982789279827998F8A
:1032B000888FEA8CFB8CFE24EF24FE24FB8EEA8EA2
:1032C000892BD1F18F89811169C00E941304F50106
:1032D00066837783808791872789308D4A8D5B8DC0
:1032E000232B09F056C0288D398D2130310509F086
:1032F00050C049305105E1F0483C510519F04430C7
:103300005105D1F4D5011E966D937D938D939C93B9
:103310005197E1E0F0E05896FC93EE935797C50182
:103320000E94E42060E070E0CB010E94E00399CFAE
:1033300083E090E0908F878BD5018D919C910E94C6
:103340006008912CD50156968C91569781505696CF
:103350008C93892DE8A1F9A10FB6F894FEBF0FBE9A
:10336000EDBFA1960FB6F894DEBF0FBECDBFDF91C3
:10337000CF911F910F91FF90EF90DF90CF90BF9072
:10338000AF909F908F907F906F905F904F903F9005
:1033900008954530510509F064CFCECFF501808105
:1033A0009181F1E0EF16FF0640F0D50158961C928E
:1033B0001E9257970E94600854CF8DB69EB6970113
:1033C0002F5F3F4FEDB7FEB7E21BF30B0FB6F8943C
:1033D000FEBF0FBEEDBF0DB71EB70F5F1F4FA7019A
:1033E000B801DC018D919C910E941F048E159F05F0
:1033F00009F06AC0EA8DFB8DE00FF11F10820E9478
:103400001304F50166837783808791878F898131E3
:1034100009F44AC258F58630D1F08F3009F4AEC0B5
:10342000823051F5D50157968D919C915897892BF3
:1034300071F4E1E0F0E05896FC93EE935797C501E4
:103440000E94E42060E070E0CB010E94E003488D20
:10345000598DD12CC12CF12CE12C08EC10E030E07E
:1034600020E060E0C5010E94631D12C08D31D1F2E1
:1034700058F4843109F482C0F501108E178A8081D6
:1034800091810E94600804C0893241F08733A1F71E
:103490000FB6F8949EBE0FBE8DBEE3CE848195819B
:1034A000892B39F480E490E00E94CB2AF5019583C2
:1034B0008483EA8CFB8CE00EF11E1A830983FC8264
:1034C000EB820E151F0530F00FB6F8949EBE0FBEAE
:1034D0008DBE32CF40E450E0B801D50114968D91F5
:1034E0009C910E94A232D5011496ED91FC9117AEE9
:1034F000C3010E94C220FC018081918100E510E09F
:103500008E159F0560F489819A81009799F12B812E
:103510003C818217930770F50E94B22C8B01D50174
:103520008D919C910E946008D501ED91FC911197BD
:1035300014968D919C9115979187808713870287A8
:1035400058961C921E9257970E941304DC01CB01DF
:1035500088589341A109B109F50182879387A4870F
:10356000B58786839783A087B18786879787A08B47
:10357000B18B8ECF60E070E0CB01D0CF888D998D7C
:10358000D50155969C938E9354974A8C5B8C680119
:10359000C40CD51C1D8F0C8FDF8ECE8E0C151D0517
:1035A00008F013C1F801E080F180CE014C960E9432
:1035B000C220DC018D919C918C159D0508F005C100
:1035C0008C8D9D8DFC012081213459F401960E943F
:1035D000942C4EE0342E380E069744F033243A945F
:1035E00005C0CE014C960E94D520382EF6E7EF1686
:1035F000F2E7FF0609F406C138F531E6E31632E7D3
:10360000F30609F4E6C044E6E41642E7F40609F4DA
:1036100078C050E7E5165DE6F50609F037C18C8DF8
:103620009D8D8C159D0508F0D0C0FC0120812134B2
:10363000A9F501960E94942C3EE0F32EF80E069711
:1036400094F1FF24FA942FC084E6E81687E7F80681
:1036500009F4A2C096E7E91697E7F90609F4E9C06C
:10366000A1E6EA16A7E7FA0609F010C1CE014C96CA
:103670000E94C220DC018D919C918C159D0508F063
:10368000A4C061E0832D0E940D03CE014C960E94E0
:10369000D520BC01832D0E94490397C0CE014C96D2
:1036A0000E94D520F82ECE014C960E94C2200C8D8F
:1036B0001D8D61ED71E0C8010E94923260E0892B9E
:1036C00079F064ED71E0C8010E949232892B39F0E3
:1036D00068ED71E0C8010E949232892B49F461E0E3
:1036E0008F2D0E940D03CE014C960E94C22097CFD1
:1036F0006CED71E0C8010E949232892BA1F762E063
:10370000EFCF7A8A698A1C8A1B8A00E110E01E8B3F
:103710000D8B6FED71E0CE0141960E94DD15032DFA
:1037200010E0B801CE0141960E94C318F801E55D92
:10373000FD4F8491F801E95EFD4FF4900D5F1D4F40
:10374000F801049160E070E0002389F081110E948B
:10375000B602E02FF0E0EE0FFF1FE750FE4FA591FD
:10376000B491EC91FE2261E070E009F460E0CE01DA
:1037700041960E94C3180B891C890150110929899F
:103780003A89D12CC12CF12CE12C50E040E064E1CD
:10379000C5010E94631D19C0CE014C960E94C22033
:1037A000DC018D919C918C159D0578F461E0832D51
:1037B0000E940D03CE014C960E94D52061E0892B1A
:1037C00009F460E0832D0E94DF02F501158A148A56
:1037D0005FCE7A8A698A1C8A1B8AE0E1F0E0FE8B60
:1037E000ED8B62EE71E0CE0141960E94DD15632DF6
:1037F00070E0CE0141960E94C318832D0E94A6035B
:10380000BC01B5CF3982BFE1B315F8F2E32DF0E08A
:10381000EE0FFF1FE15CFD4F25913491211531051D
:10382000A1F2E1E02C383E0781F2C301F9010995CC
:10383000CCCFCE014C960E94C2208C8D9D8D9C01D8
:10384000201B310B421A530A9A8389835C824B8274
:103850005E824D82398AFFE1F31508F4B6CFE32D7D
:10386000F0E0EE0FFF1FE158FD4F25913491211537
:10387000310509F4AACF01E02B38300709F4A5CFB0
:10388000B301CE014196F90109959FCFD501549618
:103890004D915C91D12CC12CF12CE12C02E010E077
:1038A00030E020E060E074CF8A8D9B8D800F911F07
:1038B0001A8309839C838B830817190708F0E8CDC6
:1038C000C3010E94C220D50155961C921E925497A6
:1038D000DFCD0E9413042B013C01F5018081918111
:1038E0000E944D08D50157962D913C91213031050C
:1038F00009F05EC0F501811109C046865786608ACD
:10390000718A108E178A8081918119CD8681978165
:10391000A085B18593018201081B190B2A0B3B0B73
:10392000D901C801893116EF9107A105B10548F702
:10393000893C9F4AA105B10590F482859385A485B1
:10394000B58593018201081B190B2A0B3B0BD9018A
:10395000C801893C9F4AA105B10508F471CCF50165
:1039600086859785A089B18993018201081B190B6F
:103970002A0B3B0BD901C80181379741A105B1053D
:1039800008F45ECCD12CC12CF12CE12C10E000E02D
:1039900030E020E050E040E066E0C5010E94631D99
:1039A000D5011E964D925D926D927C92519748CCB6
:1039B000232B09F045CCF50146855785608971892F
:1039C00093018201041B150B260B370BB901A801CB
:1039D000882381F0413757416105710508F430CCE7
:1039E000808191810E946008D50158961C921E9298
:1039F0005797A7CC493853416105710508F420CC8D
:103A0000808191810E946008D5010D911C91F8017F
:103A1000608571858081918142855385DC01ED91BE
:103A2000FC916115710599F00088F189E02D0995E7
:103A300021E0019709F020E0F80124879484911097
:103A40001CC0F50146865786608A718A7BCC068445
:103A5000F785E02D2EE931E03A832983D8011496C9
:103A6000CD90DD90ED90FC901797CB82DC82ED82BB
:103A7000FE82BE016F5F7F4FDACF81E090E0D5011B
:103A800053969C938E93529712962D913C91F901E7
:103A900001900020E9F731978F01021B130BD12C05
:103AA000C12CF12CE12C41E050E06DE1C5010E94F8
:103AB000631DF50182859385A485B58586879787E3
:103AC000A08BB18B3FCC2F923F924F925F926F921F
:103AD0007F928F929F92AF92BF92CF92DF92EF929E
:103AE000FF920F931F93CF93DF9300D000D000D0AD
:103AF000CDB7DEB75C016E834A013901DC018D91DF
:103B00009C910E944D08882309F4D3C08E818D7F3B
:103B100009F401C1BE81B63009F4FDC0BD3109F41C
:103B2000FAC0F5018789908D019709F0C2C0811410
:103B30009104B9F4D50154968D909C9055978114B9
:103B4000910479F452968D919C915397019609F4C2
:103B5000C9C053969C938E935297D50152968D90DF
:103B60009C908E818C50893090F5F50182859385EB
:103B7000A485B585468157816085718548175907A9
:103B80006A077B0710F4AC01BD011A012B01F2E4B6
:103B90002F0E311C411C511C0E941304A2019101E3
:103BA000261B370B480B590BDA01C901B7FDA0C022
:103BB000C5010E94E8180E941304A2019101261B6E
:103BC000370B480B590BDA01C901B7FFF1CFC80118
:103BD00005966114710411F485E090E0512C412C9C
:103BE000E114F10409F02601480E591EBE81B98383
:103BF0009824892498249B828A82C8018C0D9D1D5B
:103C00009827892798279D838C83D501ED91FC9176
:103C100080819181DC01ED91FC910280F381E02DA6
:103C200045E050E0BE016F5F7F4F09954C0160E0B9
:103C300070E0CB010E94E003BE81BB2381F101153E
:103C40001105A9F0D501ED91FC9180819181DC01F4
:103C5000ED91FC910280F381E02DA801B30109955B
:103C6000880E991E60E070E0CB010E94E003C11451
:103C7000D104A9F0D501ED91FC9180819181DC0105
:103C8000ED91FC910280F381E02DA601B701099529
:103C9000880E991E60E070E0CB010E94E00384145E
:103CA000950479F1F501108E178A808191810E9427
:103CB000600826960FB6F894DEBF0FBECDBFDF9129
:103CC000CF911F910F91FF90EF90DF90CF90BF9019
:103CD000AF909F908F907F906F905F904F903F90AC
:103CE0002F90089581E090E0F501938B828B35CF82
:103CF000D50156968C9181116ACFC5010E94E818B2
:103D000066CF0E941304D5011A966D937D938D930F
:103D10009C931D97CECF8114910409F058CF0ACF00
:103D2000CF92DF92EF92FF920F931F93CF93DF9387
:103D3000CDB7DEB7C75AD1090FB6F894DEBF0FBEB4
:103D4000CDBF0E9431086B017C01CE010196CE559A
:103D5000DF4F99838883C25AD040CC55DF4F1982F8
:103D60001882C45AD04080E890E0CA55DF4F99834A
:103D70008883C65AD04067EF71E0CE018E559F4FC1
:103D80000E94DD1561E070E0CE018E559F4F0E94CC
:103D9000C3188E010F571F4F23E045E0C701B6013E
:103DA0000E94AD2AB801CE018E559F4F0E94DD15AD
:103DB000CC55DF4F08811981C45AD04001501109F8
:103DC000CE55DF4F28813981C25AD040D12CC12C29
:103DD000F12CE12C50E040E064E184EF95E00E949A
:103DE000631DC955DF4F0FB6F894DEBF0FBECDBFC0
:103DF000DF91CF911F910F91FF90EF90DF90CF90C7
:103E000008951F920F920FB60F9211242F933F9394
:103E10004F935F936F937F938F939F93AF93BF93D2
:103E2000EF93FF9387EA93E00E942702FF91EF91BF
:103E3000BF91AF919F918F917F916F915F914F91C2
:103E40003F912F910F900FBE0F901F9018951F92CA
:103E50000F920FB60F9211242F938F939F93EF938E
:103E6000FF93E091B703F091B8038081E091BD0327
:103E7000F091BE0382FD1BC090818091C0038F5FD3
:103E80008F732091C103821741F0E091C003F0E0ED
:103E9000E955FC4F958F8093C003FF91EF919F915F
:103EA0008F912F910F900FBE0F901F9018958081CA
:103EB000F4CF1F920F920FB60F9211242F933F93BE
:103EC0008F939F93AF93BF9380910B0390910C03BB
:103ED000A0910D03B0910E0330910A0323E0230F4C
:103EE0002D3758F50196A11DB11D20930A0380932B
:103EF0000B0390930C03A0930D03B0930E038091DA
:103F00000F0390911003A0911103B0911203019639
:103F1000A11DB11D80930F0390931003A093110373
:103F2000B0931203BF91AF919F918F913F912F91C9
:103F30000F900FBE0F901F90189526E8230F029642
:103F4000A11DB11DD2CF1F920F920FB60F92112457
:103F50002F933F934F935F936F937F938F939F9391
:103F6000AF93BF93EF93FF938091B900887F803622
:103F700009F44AC0F0F5883209F4A7C018F5803179
:103F800009F49BC0B8F4882309F4F9C0883009F417
:103F900094C0FF91EF91BF91AF919F918F917F91CD
:103FA0006F915F914F913F912F910F900FBE0F90A6
:103FB0001F901895883109F488C0803251F780939A
:103FC000E00214C0803409F49DC040F48033B9F39A
:103FD0008833F9F68093E00285ECB0C0803509F4AF
:103FE00085C0883509F496C0883499F60E94EC168D
:103FF000D0CF883909F48CC038F5883729F050F4CF
:10400000883611F0803729F683E08093E20210921F
:10401000BB0257C0883809F47BC0803919F080385A
:1040200009F0B7CF8091BB02803208F071C0E091F7
:10403000BB0281E08E0F8093BB028091BB00F0E059
:10404000E556FD4F80833DC0803B39F0E0F4803A77
:1040500009F479C0883A09F09CCF84E08093E202A9
:1040600010929A0210929902E0918303F0918403D6
:1040700009958091990281110FC081E08093990286
:104080001092790209C0803C09F4A6CF883C09F45B
:10409000A3CF883B09F07DCFE0919A0281E08E0F9B
:1040A00080939A02F0E0E758FD4F80818093BB0037
:1040B00090919A028091990229C08091BD028093CB
:1040C000BB0085EC8093BC0064CF9091DF028091AF
:1040D000DE02981758F5E091DF0281E08E0F8093A1
:1040E000DF02F0E0E254FD4F8081E9CFE091DF0292
:1040F00081E08E0F8093DF028091BB00F0E0E254FC
:10410000FD4F80839091DF028091DE029817C8F204
:1041100085E8D8CFE091DF0281E08E0F8093DF0247
:104120008091BB00F0E0E254FD4F80838091E1027A
:1041300081115CCF81E08093BC0284EA8093BC0053
:104140001092E20226CF85EC8093BC001092E2022E
:104150008091BB02803230F4E091BB02F0E0E55682
:10416000FD4F10826091BB0270E0E0918103F091FD
:1041700082038BE992E009951092BB020ACF10925C
:10418000E00234CFDC01ED91FC911197309761F0A2
:1041900012962D913C911397E217F30728F40190A2
:1041A0000020E9F7ED93FC930895FC018081918153
:1041B000009739F0228133818217930710F40C9411
:1041C000942C90E080E00895AF92BF92CF92DF925E
:1041D000EF92FF920F931F93CF93DF93CDB7DEB78C
:1041E000CF5BD1090FB6F894DEBF0FBECDBF5C0127
:1041F000CE0186589F4FC654DF4F99838883CA5B90
:10420000D040C454DF4F19821882CC5BD04080E488
:1042100090E0C254DF4F99838883CE5BD04065EE37
:1042200071E0CE0186549F4F0E94DD156AEE71E069
:10423000CE0186549F4F0E94DD1549E750E06AE6A3
:1042400071E0CE0101960E94D92CC454DF4FC88082
:10425000D980CC5BD040C654DF4FE880F980CA5B80
:10426000D04009E710E09E012F5F3F4F50E040E053
:1042700061E1C5010E94631DC154DF4F0FB6F89480
:10428000DEBF0FBECDBFDF91CF911F910F91FF9089
:10429000EF90DF90CF90BF90AF900895E7EAF3E002
:1042A0001382128288EE93E0A0E0B0E084839583CD
:1042B000A683B78320E431E03183208325EC30E00E
:1042C0003587248724EC30E03787268720EC30E0E0
:1042D000318B208B21EC30E0338B228B22EC30E0D1
:1042E000358B248B26EC30E0378B268B118E128E8B
:1042F000138E148EE4E4F4E0138212828483958397
:10430000A683B78382E591E091838083E0E5F4E0C2
:104310008EE991E091838083128213821482158248
:10432000E6E5F4E091838083128213821482158281
:10433000ECE5F4E09183808312821382148215826B
:10434000E2E6F4E091838083128213821482158264
:10435000E8E6F4E09183808312821382148215824E
:10436000E4E7F4E091838083128213821482158241
:10437000EEE6F4E091838083128213821482158228
:10438000EAE7F4E09183808312821382148215821B
:10439000E0E8F4E091838083128213821482158214
:1043A000EFE2F6E0918380831282138214821582F9
:1043B000E0E2F6E01382128220E731E031832083CD
:1043C00024E0248728EE33E036872587A3E1B6E092
:1043D00013969C938E93129714961D921D921D9284
:1043E0001C92179719961C921E9218971B961C9256
:1043F0001E921A971C961C921C971196FC93EE9392
:1044000040E757E160E070E044835583668377833B
:10441000E4EFF5E0B183A083138212821582148247
:1044200016821782108611861286138614861586C8
:1044300016861786108A118A138A128A158A148A98
:10444000168A108E178A8FEF9FEF9093F305809353
:10445000F205E6E8F4E01382128284E691E09183AB
:10446000808387E2848380E1818782E0828713866C
:104470000895CF93DF93CDB7DEB7C659D1090FB6F4
:10448000F894DEBF0FBECDBF789484B5826084BD42
:1044900084B5816084BD85B5826085BD85B5816048
:1044A00085BD80916E00816080936E0010928100C6
:1044B0008091810082608093810080918100816081
:1044C0008093810080918000816080938000809142
:1044D000B10084608093B1008091B00081608093CE
:1044E000B00080917A00846080937A0080917A0095
:1044F000826080937A0080917A00816080937A0054
:1045000080917A00806880937A001092C1008EEFCB
:1045100080930D069DEE90930E062AEB20930F06D6
:10452000809310068093110690931206AAEFB1E0D3
:10453000E1E0F0E09F012F5F3F4F4D91EC50FA4FCB
:10454000818D8427818FF9012630310514F0E1E057
:10455000F0E022E0AA31B20769F780917903811176
:104560002AC0109261031092600388EE93E0A0E0ED
:10457000B0E08093620390936303A0936403B093CD
:10458000650386E191E090935F0380935E038EE97B
:1045900091E090936D0380936C0310926E031092E0
:1045A0006F03109270031092710384E0809376037E
:1045B00081E0809379038BE193E090931A038093D9
:1045C0001903809118038111ADC060E372E080E0AF
:1045D00090E00E94E003DFB6F8940DE012E0E1E223
:1045E000EE2EE2E0FE2E80911603811125C0F80127
:1045F0008491F7019491E82FF0E0EE0FFF1FE15155
:10460000FE4FA591B4918C91982321F461E08AE04A
:104610000E94DF0261E08AE00E940D038CB5806198
:104620008CBD8CB580648CBD61E08DE00E940D0373
:1046300061E08BE00E940D03809116038F5F8093F1
:104640001603DFBEF8010491E02FF0E0EE0FFF1F2C
:10465000EB51FE4F85919491909315038093140331
:10466000F701E490E092130361E08AE00E940D03F9
:104670000E945B0680E591E00E948D0184E38093B7
:10468000A60380E80E9427070E94760A882309F47F
:104690000AC288E00E9427070E94630A883009F056
:1046A00002C280E10E9427070E94630A803109F05C
:1046B000FAC180E00E9427070E94630A182F811127
:1046C000F2C141E050E0BE016F5F7F4F8FE190E0AB
:1046D0000E94EE088981833009F0E5C180E480936F
:1046E000170342E06EE170E0812F0E94830742E0F1
:1046F0006FE170E0812F0E9483071F5F143089F7FC
:1047000040E06EE170E0812F0E94830740E06FE19E
:1047100070E0812F0E9483071F5F183089F781E0C6
:104720008093180380E591E00E948D0146E050E0FF
:104730006DE076E089E090E00E9477068EE991E0F6
:104740009A8389831B821C821D821E8244E050E072
:10475000BE016D5F7F4F8FE090E00E947706009171
:10476000190310911A03D80192961D921D921D9261
:104770001C929597F80116A217A210A611A69A9658
:104780001D921D921D921C929D9780E69AEEA0E0CC
:10479000B0E086AB97ABA0AFB1AF80EA9FE0A0E0FE
:1047A000B0E082AF93AFA4AFB5AFD801189686E062
:1047B000FD01282F11922A95E9F79801225F3F4FBA
:1047C00094E1F90111929A95E9F7EDE0F6E0019094
:1047D0000D928A95E1F72C5C3F4FC157DF4F39832B
:1047E0002883CF58D040D9011C920E943C2C2FEC3A
:1047F00037E040E050E00E948A30DC01CB010196B6
:10480000A11DB11DF80184839583A683B78380839E
:104810009183A283B3835801F3E4AF0EB11CC501A9
:104820000E94BE0964E470E0C5010E94270D882340
:1048300009F4AAC10E9413042B013C0148EEC42EC6
:1048400043E0D42EE12CF12C52E0252E912C812C2A
:10485000C157DF4FA881B981CF58D0408C918330A8
:10486000E1F181119BC1F80184819581A681B78115
:104870000196A11DB11D84839583A683B7830E94F1
:1048800013046419750986099709A70196010E9406
:10489000F330A90161E0C8010E94CF1481E0C15743
:1048A000DF4FA881B981CF58D0408C93F1E08F16AB
:1048B000910471F20E94130464197509860997091D
:1048C000D801D6962D913D914D915C91D99726179F
:1048D00037074807590708F0B9CFC5010E94BE093C
:1048E000F80184819581A681B7810196A11DB11D32
:1048F00084839583A683B7830E941304F801FE96F0
:1049000060837183828393838A94892809F03CC1F0
:1049100080E591E00E948D010091190310911A0326
:10492000B801625F7F4F9E012F5F3F4F5901C90160
:104930000E94CC1044E050E0BE016D5F7F4F8FE0DD
:1049400090E00E947706B8016A5E7F4FC5010E9421
:10495000CC1044E050E0BE016D5F7F4F81E090E0FD
:104960000E947706B8016E5E7F4FC5010E94CC1091
:1049700044E050E0BE016D5F7F4F85E090E00E9413
:104980007706B801625E7F4FC5010E94CC108B8113
:104990009C81AD81BE818093700490937104A0933B
:1049A0007204B09373040E94BB037F738091000173
:1049B00090910101682779277093010160930001AC
:1049C00068EE73E080E090E00E94E0038EE991E001
:1049D0009A8389831B821C821D821E8280E591E05E
:1049E0000E948D0144E050E0BE016D5F7F4F8FE07B
:1049F00090E00E94EE088AEF91E09093F705809393
:104A0000F6050E941304DC01CB0188589341A109EB
:104A1000B1098093FE059093FF05A0930006B09323
:104A200001068093FA059093FB05A093FC05B093D3
:104A3000FD058093020690930306A0930406B093AD
:104A40000506E091F405F091F5058BE192E0918780
:104A5000808780E590E0938782878091F40590912C
:104A6000F5050E94600810920C0610920B060E9439
:104A700013046B017C0180910B0690910C06019749
:104A800009F46BC10E9413046C197D098E099F09FA
:104A9000603576448105910508F05FC184EF95E0AB
:104AA0000E94E818E8CF87E38093A60380E80E947D
:104AB00027070E94760A882329F188E00E942707A9
:104AC0000E94630A8830F1F480E10E9427070E9467
:104AD000630A182F8031B1F480E00E9427070E94FA
:104AE000630A81110FC041E050E0BE016F5F7F4F4C
:104AF00089E390E00E94EE088981843019F41093D4
:104B000017030DCE83E38093A60380E80E94270756
:104B10000E94760A8823B1F180E10E9427070E9453
:104B2000630A803179F582E10E9427070E94630AB7
:104B3000823141F580E00E9427070E94630A8111BB
:104B400021C084E08093170315E5C257DF4F188317
:104B5000CE58D04041E050E0BE0162577F4F8BE11C
:104B600090E00E947706C357DF4F1883CD58D0409E
:104B700041E050E0BE0163577F4F8AE190E00E9420
:104B80007706CDCD1092A60360E177E280E090E059
:104B90000E94E003F0E0E0E00995FFCF843019F5D2
:104BA000F80184819581A681B7810196A11DB11D6F
:104BB00084839583A683B7830E94130464197509BF
:104BC00086099709A70196010E94F330A90163E0C5
:104BD000C8010E94CF14C157DF4FA881B981CF58B7
:104BE000D0402C9263CE813079F5F80142AD53ADBF
:104BF00064AD75AD9E012F5F3F4FC8010E94241721
:104C0000382EF2E08F139EC089819A81AB81BC81DE
:104C1000F80184839583A683B7830E9413046419E3
:104C2000750986099709A70196010E94F330A90129
:104C300063E0C8010E94CF14C157DF4FA881B9813A
:104C4000CF58D0403C9232CE823009F02FCEF801BE
:104C500042AD53AD64AD75AD9E012F5F3F4FC801AE
:104C60000E942417382EF5E08F1361C0E3E0C1578E
:104C7000DF4FA881B981CF58D040EC93F80182A1D1
:104C800093A1A4A1B5A1892B8A2B8B2B41F424E8F5
:104C900033E040E050E022A333A344A355A3F8013E
:104CA00086A197A1A0A5B1A5892B8A2B8B2B61F496
:104CB00082A193A1A4A1B5A1B695A7959795879533
:104CC00086A397A3A0A7B1A7F80182A593A5A4A541
:104CD000B5A5892B8A2B8B2BA9F482A193A1A4A122
:104CE000B5A1AC01BD0123E0769567955795479531
:104CF0002A95D1F7841B950BA60BB70B82A793A718
:104D0000A4A7B5A7F80186A197A1A0A5B1A586A7DC
:104D100097A7A0ABB1AB82A593A5A4A5B5A582AB7F
:104D200093ABA4ABB5AB88248394912CBFCDF6E0B4
:104D30008F1308C0C157DF4FA881B981CF58D04029
:104D40001C92B4CDBFEF3B12B1CDC157DF4FE8810C
:104D5000F981CF58D0401082A9CD80910B06909157
:104D60000C06019709F079CE109288031092870300
:104D700010928603109285030E94960486EA91E0C1
:104D8000909384038093830387EA91E09093820356
:104D90008093810310928B0480919004823018F0EC
:104DA00098E090938B0480938E0462E370E080E03F
:104DB00090E00E94E0036091910486E894E00E94F4
:104DC0005A0568EE73E080E090E00E94E00360E343
:104DD00086E894E00E9477160BE416E4C801019778
:104DE000F1F760E386E894E00E947716C801019726
:104DF000F1F760E386E894E00E94771683E592E09D
:104E00000197F1F760E286E894E00E9477166091DE
:104E10008B04606240E086E894E00E94901684E093
:104E200080938C0440E06CE086E894E00E94901649
:104E300040E061E086E894E00E9490160BE31FE1F9
:104E4000C8010197F1F782E080938D0440E066E0AD
:104E500086E894E00E94901640E062E086E894E0E4
:104E60000E949016C8010197F1F788E080939104A1
:104E700060E086E894E00E945A0540E061E086E840
:104E800094E00E949016C8010197F1F740E062E0BB
:104E900086E894E00E949016C8010197F1F780E03F
:104EA0000E94A71687E292E00E94E10861E084E098
:104EB0000E940D0361E085E00E940D0360E084E044
:104EC0000E94DF0260E085E00E94DF0261E083E093
:104ED0000E940D038091F2059091F30597FF22C087
:104EE0000E941304E2E9F4E050E040E026E1249F50
:104EF000D001259FB00D11248D010E561B4FD801F6
:104F0000322F1D923A95E9F76083718382839383F0
:104F10004F5F5F4F76964031510549F71092F30588
:104F20001092F2058091F2059091F3054097CCF52F
:104F3000E2E9F4E090E080E024813581232B09F060
:104F400097C226813781232B09F092C226E1289F40
:104F50008001299F100D11240E561B4F88EE93E0FF
:104F6000A0E0B0E0F80183879487A587B68780E941
:104F70009EE1958384831286108A178681E0838B55
:104F80000E941304D8016D937D938D939C93139786
:104F90008091F2059091F30501969093F30580932B
:104FA000F20588248394912C50E8252E312C84EF2F
:104FB00095E00E94E8180E941304CD56DF4F6883E5
:104FC00079838A839B83C359D04032E9E32E34E04E
:104FD000F32E8701F801158A148A84819581892B23
:104FE00029F486819781892B09F450C0D8012D912D
:104FF0003D914D915C911397C157DF4F28833983C1
:105000004A835B83CF58D040CD56DF4F688179818A
:105010008A819B81C359D040621B730B840B950B13
:105020001B964D905D906D907C901E976415750554
:105030008605970558F1A30192010E94F330C30140
:10504000B2010E949B31C157DF4F288139814A81CB
:105050005B81CF58D040620F731F841F951FD8010A
:105060006D937D938D939C93139753968C91539747
:10507000882361F01F962D913C91509721153105A1
:1050800009F0FDC155969C928E9254970A5E1F4F6F
:1050900035E0023F130709F09DCF10E000E0D70193
:1050A00054968D919C915597892BE9F11A968C9184
:1050B0001A97882309F4F8C11696ED91FC91179779
:1050C00018968D919C910995F7018489958902978D
:1050D00051F58091F2059091F305892B21F184819E
:1050E0009581892B21F486819781892BE1F026E136
:1050F000209FF001219FF00D1124EE56FB4FDF01A0
:105100001D922A95E9F70E941304F70160837183C9
:10511000828393838091F2059091F3050197909398
:10512000F3058093F2050F5F1F4FF6E1EF0EF11CC0
:105130000031110509F0B3CFC957DF4F198218822A
:10514000C758D040C757DF4F19821882C958D0407E
:10515000C557DF4F19821882CB58D04070E060E00D
:10516000CE0189579F4F0E940516C957DF4F2881EE
:105170003981C758D04081119CC12115310519F0E2
:10518000C9010E94672BC957DF4F19821882C7587F
:10519000D040C557DF4F19821882CB58D040C7572F
:1051A000DF4F19821882C958D0400E943108CF576A
:1051B000DF4F19821882C158D040CD57DF4F198276
:1051C0001882C358D040CB57DF4F19821882C55878
:1051D000D040850122E044E00E94AD2A7C01009786
:1051E00009F47EC1FC0101900020E9F731978F019D
:1051F000081B190BB801CE018F579F4F0E9405164F
:10520000CF57DF4F28813981C158D04081115DC10E
:105210002115310519F0C9010E94672BCF57DF4FC7
:1052200019821882C158D040CB57DF4F198218829B
:10523000C558D040CD57DF4F19821882C358D0408F
:10524000C957DF4F88819981C758D040009709F42A
:1052500053C1CF57DF4F68817981C158D040611564
:10526000710509F447C1C757DF4F48815981C958B3
:10527000D040CB57DF4F28813981C558D0404217E5
:10528000530708F437C10E949B32CB57DF4F888108
:105290009981C558D040C557DF4F99838883CB5833
:1052A000D040CB57DF4F19821882C558D040CF5716
:1052B000DF4F88819981C158D040009711F00E943A
:1052C000672B82E00E94A716C557DF4F488159819E
:1052D000CB58D040C957DF4F68817981C758D0403B
:1052E00086E894E00E94A9018FE00E94A6039695AB
:1052F0008795969587956FEF70E0681B790B83E033
:105300000E94490364E670E080E090E00E94E003C0
:105310000E94310820E030E04CE052E40E949631D7
:1053200018160CF08EC080918903882309F489C077
:105330001092890360E085E00E94DF0287E00E940E
:10534000A71681EB91E00E94E108CF57DF4FB982A9
:10535000A882C158D040CD57DF4F19821882C35858
:10536000D040CB57DF4F39822882C558D04067EFF5
:1053700071E0CE018F579F4F0E94DD1566E070E00F
:10538000CE018F579F4F0E94C3186AE272E0CE0190
:105390008F579F4F0E94DD15CD57DF4F0881198130
:1053A000C358D04001501109CF57DF4F28813981B0
:1053B000C158D040D12CC12CF12CE12C50E040E060
:1053C00064E184EF95E00E94631DCF57DF4FB982FF
:1053D000A882C158D040CD57DF4F19821882C358D8
:1053E000D040CB57DF4F39822882C558D04067EF75
:1053F00071E0CE018F579F4F0E94DD1562E070E093
:10540000CE018F579F4F0E94C31870E060E0CE011D
:105410008F579F4F0E94C318CD57DF4F08811981C6
:10542000C358D04001501109CF57DF4F288139812F
:10543000C158D04050E040E064E184EF95E00E9424
:10544000631DC957DF4F88819981C758D0400097A5
:1054500011F00E94672B20E030E0232B09F4A7CD48
:105460000E941302882309F4A2CD0E9400009FCD60
:10547000019676968031910509F05ECD92CDF801C6
:10548000818992898217930708F000CE958A848AD1
:105490000196928B818B8217930708F4F7CD22E057
:1054A00030E0358B248BF2CD1496ED91FC9109956B
:1054B0000BCEC557DF4F19821882CB58D04060ED14
:1054C00071E0C9010E949B3270CECB57DF4F198328
:1054D0000883C558D040B701C9010E949B32B0CEA5
:1054E000CF57DF4F88819981C158D040009709F08C
:1054F00093CE94CE0E94672BCF57DF4F888199813E
:10550000C158D040C957DF4F99838883C758D040CE
:10551000CD57DF4F88819981C358D040C757DF4F9F
:1055200099838883C958D040CB57DF4F88819981B0
:10553000C558D040C557DF4F99838883CB58D0409A
:10554000CF57DF4F19821882C158D040CD57DF4F57
:1055500019821882C358D040A4CEEF920F931F93A4
:10556000CF93DF93E80134E047FD34E1042E000CD3
:10557000550B57FF03C0519541955109E32E022F5A
:10558000242FAE010E94242DCE01DF91CF911F91D7
:105590000F91EF9008950F931F93CF93DF93823075
:1055A000910510F482E090E0E0913706F091380622
:1055B00030E020E0B0E0A0E0309799F4211531050B
:1055C00009F44AC0281B390B24303105D8F58A81EB
:1055D0009B816115710589F1FB0193838283FE0133
:1055E00011C0408151810281138148175907E0F0B1
:1055F0004817590799F4109761F012960C93129777
:1056000013961C933296CF01DF91CF911F910F918A
:1056100008950093370610933806F4CF211531050D
:1056200051F04217530738F0A901DB019A01BD017F
:10563000DF01F801C1CFEF01F9CF909338068093D5
:105640003706CDCFFE01E20FF31F819391932250D5
:10565000310939832883D7CF20913506309136061A
:10566000232B41F42091040130910501309336063B
:105670002093350620910201309103012115310557
:1056800041F42DB73EB74091060150910701241B0C
:10569000350BE0913506F0913606E217F307A0F4DA
:1056A0002E1B3F0B2817390778F0AC014E5F5F4F78
:1056B0002417350748F04E0F5F1F5093360640936E
:1056C0003506819391939FCFF0E0E0E09CCFCF939C
:1056D000DF930097E9F0FC01329713821282A091C8
:1056E0003706B0913806ED0130E020E01097A1F4C4
:1056F00020813181820F931F20913506309136062B
:105700002817390709F061C0F0933606E093350693
:10571000DF91CF910895EA01CE17DF07E8F54A81BE
:105720005B819E0141155105B1F7E901FB83EA83D5
:1057300049915991C40FD51FEC17FD0761F4808181
:1057400091810296840F951FE90199838883828154
:1057500093819B838A83F0E0E0E012968D919C9187
:1057600013970097B9F52D913C911197CD010296B1
:10577000820F931F2091350630913606281739077E
:1057800039F6309751F51092380610923706B093DB
:105790003606A0933506BCCFD383C28340815181A6
:1057A000840F951FC817D90761F44E5F5F4F88813A
:1057B0009981480F591F518340838A819B8193832C
:1057C00082832115310509F0B0CFF0933806E093BC
:1057D00037069ECFFD01DC01C0CF13821282D7CFE6
:1057E0008F929F92AF92BF92CF92DF92EF92FF92F1
:1057F000CF93DF93EC01688179818A819B81611568
:1058000071058105910521F464E279ED8BE597E05E
:105810002DE133EF41E050E00E948A3049015A0106
:105820009B01AC01A7EAB1E40E94A9306B017C01A5
:10583000ACEEB4EFA50194010E94B730C60ED71E9E
:10584000E81EF91EF7FE06C081E0C81AD108E1087B
:1058500080E8F80AC882D982EA82FB82C701B601D1
:105860009F77DF91CF91FF90EF90DF90CF90BF9027
:10587000AF909F908F9008958F929F92AF92BF921A
:10588000CF92DF92EF92FF9260910801709109012F
:1058900080910A0190910B016115710581059105B7
:1058A00021F464E279ED8BE597E02DE133EF41E0FF
:1058B00050E00E948A3049015A019B01AC01A7EADD
:1058C000B1E40E94A9306B017C01ACEEB4EFA501FC
:1058D00094010E94B730C60ED71EE81EF91EF7FECF
:1058E00006C081E0C81AD108E10880E8F80AC09231
:1058F0000801D0920901E0920A01F0920B01C70160
:10590000B6019F77FF90EF90DF90CF90BF90AF9060
:105910009F908F9008956093080170930901809380
:105920000A0190930B010895FC0188279927E894B8
:1059300021912032E9F3293010F02E30C8F32B32B8
:1059400041F02D3239F4689404C00E94022D820F78
:10595000911D219120532A30C0F31EF4909581951A
:105960009F4F08951F93FC0199278827BC01E89455
:1059700011911032E9F3193010F01E30C8F31B32C8
:1059800051F01D3249F4689406C00E94ED2C610F5D
:10599000711D811D911D119110531A30B0F33EF409
:1059A00090958095709561957F4F8F4F9F4F1F9178
:1059B0000895FB01DC0102C005900D92415050405A
:1059C000D8F70895BB274A3031F4992322F4BDE279
:1059D000909581959F4F0C940B2D592F482F372F61
:1059E000262F660F771F881F991F660F771F881F46
:1059F000991F620F731F841F951F660F771F881FE3
:105A0000991F08957AE0979F902D879F802D910D83
:105A100011240895BB27FB015527AA27880F991F3A
:105A2000AA1FA41710F0A41B83955051B9F7A05DCD
:105A3000AA3308F0A95DA193009779F7B111B1934A
:105A40001192CB010C945B2FA9E0B0E0EAE2FDE2F9
:105A50000C94C2306A01F22EB02E102FFBE3AF2E51
:105A6000A01608F41BE31F5F012F27E0AE014F5F74
:105A70005F4F0E94832EBC018981982F99709130CD
:105A800009F43FC09BE2E1FC04C09E2D9170E0FC54
:105A90003AC05E2D5071E82FE87083FF46C084E065
:105AA000911101C083E0EF2DE81B8F1508F0E0E0B5
:105AB000D6018E2F20E2552351F1992329F0D601EA
:105AC0009C93C60101966C0196012D5F3F4FE2FE4B
:105AD00024C08EE4D6018C9391E411969C93119787
